:020000040800F2
:1000000080160020D1000008F51C0008951A000891
:1000100000000000000000000000000000000000E0
:10002000000000000000000000000000F91C0008B3
:100030000000000000000000F71C0008FB1C000886
:10004000E3000008E3000008E3000008E300000804
:10005000E3000008E3000008E3000008E3000008F4
:10006000E300000879020008E3000008E30000084C
:10007000E3000008E3000008E3000008E3000008D4
:10008000E3000008E3000008E3000008891D000801
:10009000E3000008E3000008E3000008E3000008B4
:1000A000E3000008E3000008E3000008E3000008A4
:1000B000E3000008F7260008E3000008034885462F
:1000C00000F08EF8004800477D27000880160020C9
:1000D0000448804704480047FEE7FEE7FEE7FEE7E6
:1000E000FEE7FEE7791D0008BD00000830B50B46AD
:1000F000014600202022012409E00D46D5409D4202
:1001000005D31D469540491B254695404019154687
:10011000521E002DF1DC30BDF0B51FB406460020A4
:1001200082B005464024019100901BE001992246CF
:100130000F46304600F042F8049A059B801A994118
:1001400010D310461946224600F028F8361A8F417F
:100150000197224601200021009F00F01FF8381867
:100160004D4100902046641E0028DFDC019B009872
:100170002946324607B0F0BDD2B201E00270401C01
:10018000491EFBD270470022F6E710B513460A4617
:1001900004461946FFF7F0FF204610BD10B5202A8F
:1001A00004DB0146203A9140002010BD91402023FD
:1001B0009C1A0346E3401943904010BD10B5202A15
:1001C00004DB0846203AD040002110BD0B46D34046
:1001D000D0402024A21A91400843194610BD0000C7
:1001E000064C0125064E05E0E36807CC2B430C3C8A
:1001F00098471034B442F7D3FFF764FF2029000872
:1002000040290008F8B50446006801F044FC0028C5
:100210002ED120688168174A10261140002919D173
:100220008168D5432940491C8160607E01281FD028
:1002300000F03AFC074616E001F02DFC002804D13E
:10024000206881682940491C816000F02DFCC01B9A
:10025000022808D9A06D3043A065E06D0121084354
:10026000E0650846F8BD20680168C943C907E3D1C5
:100270000020F8BD1700008010B5024800F0C8FA51
:1002800010BD00002412002010B50446007814218F
:100290000838FFF72BFF216C064A89088900891866
:1002A000616404498031A1641C210840012181401E
:1002B000E16410BD000802400179074B8A00D218A2
:1002C0000265054A4432491E42658A07920F0121A0
:1002D0009140816570470000FC08024070470000B3
:1002E000F8B500270646044640360097307D0D4697
:1002F00001280FD001203075206801F0D0FB0028C4
:100300000AD0A06D20210843A06501270020307588
:100310003846F8BD0220F8BD686802287ED0012268
:100320002169D207914202D0121D914206D1206864
:100330002968826A4903490B0A436EE0C206D20E5D
:100340000F20216E904081432868430302D0C307E9
:100350004BD102E04000C00E48E0830701D50120E8
:1003600044E0430701D5022040E0030701D5032004
:100370003CE0C30601D5042038E0830601D5052002
:1003800034E0430601D5062030E0030601D50720FE
:100390002CE0C30501D5082028E0830501D50920FC
:1003A00024E0430501D50A2020E0030501D50B20F8
:1003B0001CE0C30401D50C2018E0830401D50D20F6
:1003C00014E0430401D50E2010E0030401D50F20F2
:1003D0000CE0C30301D5102008E0830301D51120F0
:1003E00004E0400301D5122000E0002090400143CA
:1003F00021666968E2698808401C904210D820682C
:100400002B68826A9C46C906C90E0F238B409A430B
:1004100063469B001B0F8B401A4300E038E082626A
:100420002168AB6828684A6900028243184040018D
:10043000400902434A612868002800DB66E7294A30
:10044000116807239B051940274B984211D10B02D5
:100450000FD4C0020143104601F025FB2448234974
:100460000068FFF743FE00E0401E00900028FBD12B
:100470004CE7204B984203D1CB0101D4800205E028
:100480001D4B9842DAD14802D8D45802014325E0E6
:1004900001212069C907884202D0091D884206D17E
:1004A00020682968826A4903490B8A438262286866
:1004B0000028C3DA0B4A116807239B0519400A4B31
:1004C000984201D1C00208E00A4B984201D1800253
:1004D00003E0094B9842B1D140028143104601F03C
:1004E000E2FA13E708270140001000B0400D0300B6
:1004F0000C000020004000B8002000B4F0B5002639
:1005000085B00446029601960096002803D0A06D9F
:10051000002803D009E0012005B0F0BD204600F01E
:1005200015F90020E0655421085520688168C9004C
:10053000C90F11D181687D4A114001221207114370
:1005400081607C487A490068FFF7D0FD400000E0F8
:10055000401E00900028FBD1206881680127C90057
:10056000C90F002907D1A16D10221143A165E16DCA
:100570003943E165012601F092FAA16DC90601D463
:10058000002804D0A06D10210843A065CAE0A06D2A
:10059000FF210131884302210843A065206801F052
:1005A0007AFA002822D12168C86818229043A268EC
:1005B0001043C86020680169626889008908920F49
:1005C00092071143016103216068890788420DD0B9
:1005D000494288420AD04900884207D056498A6871
:1005E0000F239B049A43184002438A60207EA27E18
:1005F0008503607EC003054350030543206B00283C
:1006000001D0012000030543E0680543206900286C
:1006100002DA4000400801E0012040052146054380
:100620002031087B400005430298054308780128E3
:1006300008D1002A1DD0A06D20221043A065E06DD6
:100640003843E065606A002806D0FF23C1331840B4
:10065000A26A284302431546626C206CE36C104387
:10066000A26C097F1A431043019A1043012904D058
:1006700004E0012000040543E4E738432168CA6828
:100680002E4B1A402A43CA6021680A692C4B1A4033
:1006900002430A610021626B206801F00BFA2949CC
:1006A000A26B206801F006FA206900282AD00121F7
:1006B0004905884218D1216E002082000B46D340A4
:1006C000DA43120702D0401C0828F6D3012819D0BB
:1006D0002068826A227F9200121FD3060F22DB0E4F
:1006E000D2439A400A4382622068C0681649084093
:1006F000A8420ED10020E065A06D80088000401C5B
:10070000A06510E02068816A0F22D2431143816204
:10071000EAE7A06D0221884310210843A065E06D3F
:100720003843E06501263046F6E60000E8FFFF7F2B
:10073000400D03000C000020002701401902FEFFBD
:1007400002FCFFDF04FFFF07E7FF3F8310B586B021
:10075000044614216846FFF716FD114920688842B7
:100760001CD110480268012109050A430260006893
:10077000084005900B484038416B0122114341630A
:10078000406B694610400590432000900320019083
:10079000002002900520000700F0E6F806B010BD2A
:1007A000002401404010024070B50446006801F08A
:1007B00076F9002802D00221084670BD2546403552
:1007C000287D01280AD0012028752046FFF71AFD50
:1007D00001460020002903D02875EDE7022070BDF6
:1007E000A26D094B1A40FF2301331A43A265E0654D
:1007F00023681C221A60287520688268034B1A40FF
:10080000121D8260D8E70000FEF1FFFFE8FFFF7FC6
:10081000F0B42C490C6802681368056C1C273D4035
:100820000426AE40264211D05E070FD513689B0602
:1008300003D4146804239C4314604B68046C0422A2
:100840003C40A24013434B60016B1CE00227AF40C9
:10085000064627402036002F19D09F0717D513686A
:100860009B0605D413680A24A34313600122727106
:100870004B68046C1C2214400222A24013434B60BC
:1008800000213171C16A00291AD0F0BC084708273D
:10089000AF40274214D01B0712D513680E24A34380
:1008A00013604B68046C1C22144001221546A540BD
:1008B0002B434B60C263727100213171416BE2E7DF
:1008C000F0BC70470000024070B504003DD02448E1
:1008D000256814212818FFF709FC800020640220F5
:1008E00026462036707128681E4908402860E16855
:1008F000A06862690843216911430843A16908435C
:10090000E1690843216A084321680A6810430860C6
:100910002046FFF7B9FC0121A06889030025884221
:1009200000D16560616C20790860A06CE16C416069
:100930006068401E03280AD82046FFF7BDFC206DE2
:100940000560606DA16D416004E0012070BD25650A
:100950006565A565E563012070713571002070BD86
:10096000F8FFFDBF0F80FFFFF0B5002388E00122F4
:100970009A409446144022007ED04C68022C01D04C
:10098000122C0CD1DC08A40027183C6A5D07ED0E80
:100990000F26AE40B4430E69AE4026433E62056862
:1009A0005E000324B4400F79A543BF07BF0FB740D3
:1009B0002F4307604D68012D05D0022D03D0112D66
:1009C00001D0122D0ED18568CF68A543B7402F43C3
:1009D000876047686546AF430D79ED06ED0F9D4092
:1009E0003D434560C568A5438C68B4402C43C46052
:1009F0004C68E40043D59D08244CAD002F193C6E93
:100A00009D07EE0E0F25B540AC4305252D07A842E6
:100A100001D100250FE01E4DA84201D101250AE0B9
:100A20001C4DA84201D1022505E01B4DA84201D171
:100A3000032500E00525B5402543144C3D66134DC4
:100A400080352E684F689643FF0300D516432E600D
:100A50006E684F689643BF0300D516436E602568E5
:100A60004E689543F60200D51543256065684E68CB
:100A70009543B60202D500E001E0154365605B1CBA
:100A80000A681446DA4000D071E7F0BD0018024051
:100A90000004005000080050000C0050002A01D053
:100AA000816170478162704701488068704700002B
:100AB0000000002070B5024640325378202B1CD134
:100AC0001378012B19D00123137024245470046867
:100AD00025689D432560046825681E03B54325608D
:100AE000046825680D4325600068016819430160AA
:100AF000202050700020107070BD022070BD70B5B5
:100B0000024640325378202B1BD11378012B18D08A
:100B1000012414702423537003681D68A5431D60CD
:100B200005682B680F263602B34309021943296072
:100B3000006801682143016020205070002010707F
:100B400070BD022070BD000070B5040006D02546BF
:100B5000403568780026002802D005E0012070BDED
:100B60002E70204600F04AF8242068702068016842
:100B70004908490001600F2160680906884321681F
:100B8000086121688A680120C00382438A60E168A5
:100B90000129A16808D021229202114322689160A4
:100BA000E168022902D005E00143F7E7012122684C
:100BB000C902516021684A680F4B1A434A60216894
:100BC000CA688243CA60616920690843A169090251
:100BD00008432168C860216AE06908432168086009
:100BE000206801680122114301606664202068705A
:100BF0002663AE70002070BD0080000210B586B084
:100C0000044614216846FFF7BEFA1249206888425C
:100C10001DD1114C616B022001436163616B014086
:100C20000591C02000901220019001200290002028
:100C300003900620049069460848FFF795FEE16B93
:100C4000012040050143E163E16B0140059106B0DD
:100C500010BD00000054004000100240000400508D
:100C6000024881684268891881607047000000204E
:100C700010B5084800240168821511430160204620
:100C800000F00AF8002801D0012401E000F028F863
:100C9000204610BD0020024070B50F4E0024716840
:100CA0000546002915D07D20C000FFF71FFA014638
:100CB0000A480068FFF71AFA00F022FD002808D160
:100CC000042D06D200222946401E00F02BF8356084
:100CD00000E00124204670BD000000200C00002030
:100CE00008B50948016801221143016000681040FD
:100CF000009005484038C26B01040A43C263C06BD0
:100D00000840009008BD000040100240002805DBAC
:100D1000C106C90E012088400149086070470000E3
:100D200000E100E010B501F0E7FC10BD10B50F4C7C
:100D3000216803225202914301432160C11FFF3900
:100D4000FA390ED10A480621006848430949FFF7DD
:100D5000CDF9401C02E0002805D0401E616949051C
:100D6000F9D4002010BD032010BD00000070004029
:100D70000C00002040420F0010B50C48062100680E
:100D800048430B49FFF7B2F90A490A680B149A4322
:100D90000A60401C02E0002805D0401E4A69920506
:100DA000F9D4002010BD032010BD00000C0000206D
:100DB00040420F00007000400248016802141143D5
:100DC000016070470070004010B50C460D490028C6
:100DD000486904D0800508D4FFF7EEFF05E08005E0
:100DE00003D5FFF7C9FF002809D10748016904228C
:100DF00091430161012C03D040BF20BF20BF10BD33
:100E000030BF10BD0070004000ED00E0FEB50446AC
:100E100000680027704D714E800355D5002000906A
:100E2000F06BC00007D4F16BA8050143F163F16BCF
:100E30000140012000906A48016882151143016059
:100E4000FFF732FE019005E0FFF72EFE0199401AF0
:100E5000022825D862480068C005F5D5E869032155
:100E6000090208400FD0216B81420CD0E8690321B0
:100E70000902EA698843012109040A43EA61EA692F
:100E80008A43EA61E861C0070FD0FFF70DFE0190C9
:100E900008E0FFF709FE0199411A5248814201D941
:100EA000032709E0E8698007F3D5E869032109020F
:100EB0008843216B0843E8610098002804D0F16B57
:100EC000012000078143F1632078C00705D06869DD
:100ED000616880088000084368612078800705D534
:100EE00068690C218843A1680843686120788006FE
:100EF00006D56869032189028843E168084368616F
:100F00002088800506D56869032189048843A16982
:100F1000084368612088400506D5686903210905F2
:100F20008843E169084368612078400606D568690E
:100F3000032109038843216908436861208840042C
:100F40000ED56869216A8000800808436861012124
:100F5000206A8907884203D1F06889130843F0604A
:100F60002068000305D5686940218843616A084309
:100F70006861206881021C480BD569698210A36AE8
:100F8000914319436961A16A914202D1F168014319
:100F9000F160216849020AD56969E26A8143114317
:100FA0006961E16A814202D1F1680143F160208800
:100FB00000050FD5686903218903884361690843E7
:100FC0006861012160698903884203D1F068890062
:100FD0000843F0603846FEBD401002400010024059
:100FE000007000408813000000000001F8B50F46B3
:100FF000060043D04D4D28684007400FB84213D239
:101000002868C008C00038432860FFF74DFD04463B
:1010100005E0FFF749FD011B4548814261D828687A
:101020004007400FB842F4D13068424C81070DD5DB
:10103000400704D5A068072109030843A060A06801
:101040000F2109028843B1680843A0603078C007C7
:1010500032D0706801280AD002280BD000280FD0A7
:101060003449403103280ED0C969890704E021685A
:10107000890301E021688901002906DB0120F8BD10
:1010800021684905F8E7096AEFE7A168C908C900BE
:101090000143A160FFF708FD009006E0FFF704FDA3
:1010A0000099411A224881421BD8A0683821084083
:1010B0007168C9008842F1D128684007400FB842E2
:1010C00017D91A480168C908C90039430160FFF7F8
:1010D000EBFC054607E0FFF7E7FC411B14488142A3
:1010E00001D90320F8BD114800684007400FB842FD
:1010F000F1D13078400706D5A0680721090388435D
:10110000F1680843A06000F031F8A1683C22890929
:101110001140094A515CC906C90EC8400749086018
:1011200007480068FFF7B8FDF8BD00000020024046
:101130008813000000100240C02800080C000020A6
:10114000000000200648074900688968064A4904EB
:10115000490F8900515CC906C90EC840704700009C
:101160000C000020001002400029000810B5204C9F
:10117000A068204A8006400F16D0A0688006410F64
:10118000501001290FD0A1688906490F022912D0F9
:10119000A0688006400F042823D0A0688006400F76
:1011A000032821D0002010BD206801218004400FB9
:1011B0008140104612E0E1688B07E1689B0F490609
:1011C000490F491C032B00D01046FEF78FFFE16842
:1011D0004904490E4843E168490F491CFEF786FF60
:1011E00010BD0120C00310BD7D20000210BD000015
:1011F000001002400024F400F8B504007ED02078EE
:101200003827C007EF4D002846D0A868E968384065
:101210008907890F102802D008280BD001E0032984
:1012200008D001206268000482420AD12968014383
:10123000296015E0286880032ED560680028DDD07D
:101240002AE0052301211B0489049A422A6802D15D
:101250000A432A60EAE782432A60286888432860B4
:10126000606800280CD0FFF71FFC064604E0FFF77B
:101270001BFC801B642873D828688003F7D50BE01B
:10128000FFF712FC064604E0FFF70EFC801B642803
:10129000F1D828688003F7D42078800769D5A8683A
:1012A000E96838408A070721920FC902102802D046
:1012B000002813D001E0022A10D0E068002846D0B0
:1012C000286888432169084328602868FF21013184
:1012D00008432860FFF7E8FB06462CE02A68520521
:1012E00002D5E268002A89D06A687F231B029A43EC
:1012F00063691B021A436A60002800E08DE00ED18A
:1013000028688843216908432860286801218004EF
:10131000400F8140AC48FEF7E9FEAC490860AC489C
:101320000068FFF7B9FC002877D122E0FFF7BCFB8B
:10133000801B02289FD828684005F7D568687F2160
:1013400009028843616909020843686011E029685D
:10135000FF20013081432960FFF7A6FB064605E028
:1013600098E0FFF7A1FB801B022884D8286840057D
:10137000F7D42078974E00072ED5A8688006400F36
:1013800003280AD0A0690028306A16D0012108433A
:101390003062FFF789FB07460BE0306A80071BD5F8
:1013A000A06900289FD017E0FFF77EFBC01B022832
:1013B00070D8306A8007F7D50EE0400840003062F0
:1013C000FFF772FB074604E0FFF76EFBC01B022825
:1013D00060D8306A8007F7D4207840076CD5A868B9
:1013E00000278006400F042818D0E86BC00008D4FE
:1013F000E96B012000070143E963E96B0140012724
:10140000009175480168C90519D401688215114316
:101410000160FFF749FB00900DE083E0F069800771
:101420004AD5A06800287DD046E0FFF73DFB009933
:10143000401A02282ED868480068C005F5D5A16872
:10144000012910D004200529F16911D0490849006B
:10145000F161F1698143F161A068002816D0FFF7BE
:1014600023FB00900EE0F06901210843F061F3E7EF
:101470000143F161F7E7FFF717FB0099411A57485D
:1014800081426FD8F0698007F5D50EE0FFF70CFBBD
:10149000009007E066E0FFF707FB0099411A4F480C
:1014A00081425FD8F0698007F5D4002F04D0E86B43
:1014B000012109078843E863E06900287FD0A96813
:1014C0008906490F022953D00126360602282868CA
:1014D0000DD0B0432860E86880088000E860E868C4
:1014E0003F490840E860FFF7DFFA04463CE0B043BC
:1014F0002860FFF7D9FA074604E0FFF7D5FAC01BCA
:1015000002282FD828688001F7D4616A206AA26A6D
:101510000843E16A120211430843216B0843616BDF
:10152000084300E049E0E9682E4A11400843E860BA
:10153000286830432860E868012109070843E8600B
:10154000FFF7B2FA044604E0FFF7AEFA001B0228E8
:1015500008D828688001F7D531E0FFF7A5FA001B0D
:10156000022801D90320F8BD28688001F5D426E0BF
:101570000128F8D0E868226A8107890F91421CD1BE
:101580007021626A0140914217D17F21A26A09024B
:1015900001401202914210D11F214904E26A014028
:1015A00091420AD107214906226B0140914204D1A0
:1015B000400F616B4007884201D00120F8BD002038
:1015C000F8BD0000001002400024F4000C000020D0
:1015D000000000204010024000700040881300000E
:1015E000FFFFFEEE8C80C111F8B5040007D0002685
:1015F00025464035A662687F002802D005E001201C
:10160000F8BD2E77204600F04BF802236B77206858
:1016100001684022914301600721E0680902884285
:1016200001D9002201E0012212030F273F02B84234
:1016300002D0884200D0A662276B002F05D18842D5
:1016400001D9236301E001202063A1686068636918
:1016500008432169194308430123A1695B0219402A
:101660000843E1690843216A0843A16A08432168E5
:101670000860616B606AA36908431B0C0427E1687A
:101680003B40194308432168104348602068C16902
:101690007A029143C1612666012068770020F8BD77
:1016A00010B586B0044614216846FEF76CFD11495A
:1016B000206888421BD11048026881140A430260E6
:1016C0000068084005900C484038426B02210A43EC
:1016D0004263406B01910840059038200090002043
:1016E00002900390049069460448FFF73DF906B064
:1016F00010BD0000003001404010024000040050C6
:10170000094910B5401E884201D9012010BD074C7F
:1017100060610321081F00F0EFFF0020A061072097
:101720002061002010BD0000FFFFFF0000E000E08E
:1017300070B5040005D025462035687F002802D00A
:1017400006E0012070BD00202877204600F00AF84E
:1017500002206877211D206800F058FB012068777F
:10176000002070BD08B50068094988420FD10948BA
:101770000268C9130A430260006800220840009012
:1017800001211320FFF7CEFA1320FFF7BFFA08BD9F
:1017900000200040401002400168CB680122134342
:1017A000CB6000688168064B1940062905D01304F8
:1017B000994202D001681143016000207047000087
:1017C0000700010030B5014660310A7F012A18D0B8
:1017D00001220A77242302468032144613600368EC
:1017E0001A681D686D086D001D6001235B079A4330
:1017F0000023436600680260202020600B771846B3
:1018000030BD022030BDF8B5054604466035287F5E
:1018100001281DD001202877242220468030074649
:101820000260206806680268520852000260206860
:10183000826807235B069A430A438260204600F0D1
:101840002FFB206806602020386000202877F8BD34
:101850000220F8BDF8B5054604466035287F01280A
:101860001CD00120287724222046803007460260C1
:101870002068066802685208520002602068826888
:10188000D200D2080A438260204600F009FB20689B
:1018900006602020386000202877F8BD0220F8BDBF
:1018A00070B5040006D02046803005460068002848
:1018B00002D007E0012070BD00217C2001552046A8
:1018C00000F026F8242028602068016849084900B3
:1018D0000160204600F0ACFB0128ECD0A06A002893
:1018E00002D0204600F00CFB206841680922D20299
:1018F00091434160206881682A2291438160206879
:101900000168012211430160204600F05FFB70BDB9
:1019100070B586B0064614216846FEF734FC2149AE
:10192000306888423BD12049CA6B40010243CA63F8
:10193000CA6B02400592486B012210434863486B12
:101940000025104005900C200090022001900620F8
:10195000049005200295039569460007FFF704F8F7
:10196000134C124820600F2060601020E560A060DA
:101970006561A561E5618020256220612046FEF752
:10198000A3FF002801D0FEF7A9FC74670022022102
:101990001D20A662FFF7C6F91D20FFF7B7F906B0B4
:1019A00070BD0000008000400010024008000240AE
:1019B00024120020FFB5074604468037386885B0FA
:1019C0000D46202864D1002D0CD00798002809D09E
:1019D0000120A1680003814207D12069002804D1B9
:1019E000E80702D0012009B0F0BD20466030029027
:1019F000007F01284CD00298012101770020B860B7
:101A000021203860FFF750F80190264640360798AD
:101A1000B0820798F0820120A1680003814202D1C0
:101A20002069002802D00395002515E000200390CE
:101A300012E000228021204600F02AFE002818D162
:101A40000398002817D02168007888620398401C0A
:101A50000390F08A401EF082F08A019B00280898CB
:101A60000090E6D100224021204600F011FE00281F
:101A700008D00320B7E728882168C005C00D886218
:101A8000AD1CE6E720203860029900200877AAE71D
:101A90000220A8E7FEE78068C007C00F7047806893
:101AA0004007C00F7047026807239B059A430A430B
:101AB0000260704710B543690424214007248C401C
:101AC000A3438A401343436110BD00003EB5002488
:101AD000154800940194134902940160090584603B
:101AE000416020210461C160042141610476012527
:101AF0004576847601462031C5610C70446284626B
:101B00000C730463446384630C776907C164FEF754
:101B1000F5FC01946946044800950294FEF7E0FB49
:101B20003EBD00000024014010000020F0B587B049
:101B300014216846FEF727FB3648416B04263143E3
:101B40004163416B31400591426B20210A4342635E
:101B5000426B0A400592416B012529434163416B69
:101B600029400591426B02210A434263406B0324E2
:101B70000840A4030590002221462748FEF78EFF67
:101B8000EF030520002239460007FEF787FF0022F9
:101B900029022248FEF782FF009400240195029456
:101BA00069461D480394FEF7DFFE0096032669464A
:101BB0001B4801960294FEF7D7FE1A4800900520B4
:101BC0006946019602940007FEF7CEFE009669462C
:101BD000124801960294FEF7C7FE40200090694625
:101BE000019602940C48FEF7BFFE05200294694658
:101BF0000007009701950394FEF7B6FE28020090B7
:101C000002946946019503940448FEF7ADFE07B0BF
:101C1000F0BD000000100240000800500004005019
:101C200000140050B019000010B50D480B490160B8
:101C30000C494160002181600161416181610122A3
:101C4000C161C2600162FEF77FFF00210448FEF718
:101C500031FF00210248FEF752FF10BD0054004042
:101C6000740000205B3D300010B510480E49016043
:101C70004B210902416000218160C16001618161E5
:101C8000016241620C22816242614166FFF708FEF7
:101C900000210648FFF7DEFD00210448FFF7B3FDF1
:101CA0000248FFF78FFD10BD00800040C0000020FB
:101CB00010B50F480D490160FF2105314160002139
:101CC0000722816012020161C2604161C16101228B
:101CD000016252024162826181620722C262016333
:101CE00008214163FFF780FC10BD00000030014077
:101CF0004C01002070477047704710B5FEF7B0FFE9
:101D000010BD000010B5A0B038216846FEF73BFAC0
:101D100000241B941C941D9434210EA81E94FEF7DD
:101D200032FA01208002FFF701F802200090C00182
:101D30000390032000030490402005900794684618
:101D4000FFF75AFA07201B901C941D9400211E9443
:101D50001BA8FFF74BF907480E900120C002119015
:101D600080001290800416900EA8FFF74FF820B064
:101D700010BD00006040000001200249C0068860DC
:101D80007047000000ED00E010B51D488168042296
:101D9000114381601B4801694908490001611849E4
:101DA0001948403109685203891884680246C3689B
:101DB000926A641E09B2A34203D2D152C168891C3F
:101DC0000EE0D154C268521CC26083689A4201D3AB
:101DD000D21AC260C368826A090AD154C168491C18
:101DE000C1608268914201D3891AC16000218A00D2
:101DF00012189369491C9B1C93610229F7DB10BDE3
:101E00000024014000200040F0110020F0B50268DD
:101E10001D4B0124A4071D4D984203D0A04201D0C0
:101E2000A84203D17026B2434E683243184E194F70
:101E300098420DD0A0420BD0A84209D0164CA04227
:101E400006D0B04204D0B84202D0144CA04204D113
:101E500003242402A243CC6822438024A2434C6979
:101E6000224302608A68C2620A688262984206D08F
:101E7000B04204D0B84202D0084A904201D1096968
:101E8000016301214161F0BD002C014000040040CC
:101E90000040014000440140002000400048014053
:101EA000F0B513A106C985B00192009112A206CA2D
:101EB000039202910446416E4034002915D0006817
:101EC0008168806809014D0F400F02AE315C6F469A
:101ED000385CC000FEF70AF96085785D715DC0006E
:101EE000FEF704F9208505B0F0BD01206085F9E713
:101EF00001010103070100000804020408010101B7
:101F000010B5018DC90707D001684A6801235B0439
:101F10009A43C36A1A434A60018D890707D501684D
:101F20004A6801231B049A43036B1A434A60018DDC
:101F3000490707D501684A6801239B049A43436B0C
:101F40001A434A60018D090707D501684A680123D1
:101F5000DB039A43836B1A434A60018DC90607D598
:101F60000268916801231B039943C36B1943916075
:101F7000018D890607D501688A6801235B039A43AE
:101F8000036C1A438A60018D490612D503685A68AA
:101F900001210905446C8A4322435A60426C8A42FB
:101FA00007D10268516803235B059943836C194389
:101FB0005160018D090607D501684A680123DB04D9
:101FC000C06C9A4302434A6010BD0000FEB505464E
:101FD000002680350446AE60FEF766FD019020685D
:101FE0000068124F000709D501210097002249051A
:101FF0002046019B00F04CFB00280DD120680068B2
:1020000040070BD501210097002289052046019B3E
:1020100000F03EFB002801D00320FEBD20202860F8
:102020006860603426770020FEBD0000FFFFFF01DE
:10203000F8B50446036880682269E669104362695E
:10204000002532431043626EF24902431868F24E93
:102050003040104318602268506803231B039843E4
:10206000E368184350602268A0698A4201D0236A5D
:1020700018439368E94E3340034393602068C26A73
:10208000636A120912011A43C262E54B2068E54AED
:1020900098420AD152699207920F39D0012A3BD057
:1020A000022A37D0032A25D122E0DF4B98420AD1F9
:1020B00052690C231A402BD0042A2DD0082A29D08B
:1020C0000C2A17D114E0D94B984221D0D84B984212
:1020D0001ED088420ED1536903229202134017D0BA
:1020E000012292029B1A17D09B1A13D0934201D15E
:1020F000082600E01026FF27013788426FD1002E06
:102100000CD0022E3BD0042E7CD0082E69D182E068
:102110000026F0E70226EEE70426ECE7FFF712F8C8
:1021200072E0022129E0022812D0032812D00428EC
:1021300012D0052812D0062812D0072812D008285D
:1021400012D0092812D00A2812D00B2814D111E07D
:10215000042112E0062110E008210EE00A210CE023
:102160000C210AE0102108E0202106E0402104E0D3
:10217000802102E0394600E0012110461AE0606A41
:10218000002815D0012824D0022824D0032824D0E8
:10219000042827D0052827D0062827D0072827D0AD
:1021A000082827D0092827D00A2827D00B2827D08D
:1021B0000121A048FDF79AFF002860D061680091D6
:1021C0004A008918814259D800990903814255D3A0
:1021D00056E00221EDE70421EBE70621E9E73AE1C9
:1021E00010E04BE00821E4E70A21E2E70C21E0E7F8
:1021F0001021DEE72021DCE74021DAE78021D8E763
:102200003946D6E7FEF7B2FF0246606A0028B3D02F
:10221000012888D185E7606A002815D0012817D0E9
:10222000022817D0032817D0042817D0052817D064
:10223000062817D0072817D0082817D0092817D044
:102240000A2817D00B2817D001210120C003B1E7BD
:102250000221FAE70421F8E70621F6E70821F4E76E
:102260000A21F2E70C21F0E71021EEE72021ECE74C
:102270004021EAE78021E8E73946E6E70125DDE18C
:10228000002E31D0022E76D0042E75D0082EF5D136
:10229000606A002815D001286FD002286ED003286C
:1022A0006DD004286CD005286BD006286AD007288A
:1022B00069D0082868D0092867D00A287ED00B2862
:1022C00000D00127002601203A463346C0030021F2
:1022D000FDF722FF020E0902114302020098400896
:1022E00010187141009A3CE0FEF72CFF85E00128B0
:1022F00015D0022815D0032815D0042815D005289C
:1023000015D0062815D0072815D0082815D009287B
:1023100015D00A2815D00B2814D0012712E0022767
:1023200010E004270EE006270CE008270AE00A2741
:1023300008E00C2706E0102704E0202702E04027F1
:1023400000E08027002608463A4633463146FDF72E
:10235000E3FE020E090211436268030250081818D6
:1023600071410023FDF7D8FE03210902421A3249C8
:102370008A426FD982E709E03DE043E044E045E06E
:1023800046E05BE05CE05DE05EE05FE0606A002804
:1023900017D001281BD002281BD003281BD00428EB
:1023A0001BD005281BD006281BD007281BD00828C7
:1023B0001BD009281BD00A281BD000E048E00B28BE
:1023C00000D0012700263A4633461A487FE7022705
:1023D000F8E70427F6E70627F4E70827F2E70A27D5
:1023E000F0E70C27EEE71027ECE72027EAE7402785
:1023F000E8E78027E6E7FEF7B9FE0146606A0028B5
:102400008BD074E702275DE704275BE7062759E7CF
:10241000082757E700800040F369FFCFFFF4FF1162
:102420000038014040100240004400400048004095
:10243000004C00400024F400FFFC0F000A2741E795
:102440000C273FE710273DE720273BE7402739E7E8
:10245000802737E7F0E00122E069D20390426ED195
:10246000002E06D0022E35D0042E7AD0082E81D12F
:102470007AE0FEF767FE76E0012815D0022815D035
:10248000032815D0042815D0052815D0062815D006
:10249000072815D0082815D0092815D00A2815D0E6
:1024A0000B2814D0012712E0022710E004270EE0C9
:1024B00006270CE008270AE00A2708E00C2706E0B8
:1024C000102704E0202702E0402700E0802739465B
:1024D00010461BE0606A002815D001282BD0022886
:1024E0002BD003282DD004282DD005282DD0062848
:1024F0002DD007282DD008282DD009282DD00A2826
:102500002DD00B2800D0012739465F48FDF7EEFD9E
:10251000616840004A088018FDF7E8FD80B2014676
:102520005A4A1039914200D9A8E6511C01400007CF
:10253000400F084380E00227E6E70427E4E717E0BE
:102540000FE00627E0E70827DEE70A27DCE70C278D
:10255000DAE71027D8E72027D6E74027D4E78027F7
:10256000D2E7FEF703FE0246606A00289AD083E7AE
:10257000002E06D0022E35D0042E7ED0082ED3D1C8
:102580007EE0FEF7DFFD7AE0012815D0022815D0A5
:10259000032815D0042815D0052815D0062815D0F5
:1025A000072815D0082815D0092815D00A2815D0D5
:1025B0000B2814D0012712E0022710E004270EE0B8
:1025C00006270CE008270AE00A2708E00C2706E0A7
:1025D000102704E0202702E0402700E0802739464A
:1025E00010461BE0606A002815D0012830D0022870
:1025F00030D0032830D0042831D0052831D0062827
:1026000031D0072831D0082831D0092831D00A2804
:1026100031D00B2800D0012739461B48FDF766FD55
:1026200061684A088018FDF761FD80B20146174ACB
:102630001039914200D921E62168C8602046012165
:102640004030418501850020E06620672846F8BDBE
:102650000227E1E70427DFE70627DDE70DE008278B
:10266000DAE70A27D8E70C27D6E71027D4E7202790
:10267000D2E74027D0E78027CEE7FEF777FD024676
:10268000606A002896D07FE70024F400EFFF000086
:10269000FFB581B017460E4604460A9D09E0681C46
:1026A00007D0FEF701FA0499401AA8420CD8002D71
:1026B0000AD02068C169304688431AD00020B84249
:1026C000EDD0002005B0F0BD20680168FF22A132E6
:1026D0009143016020688168490849008160202198
:1026E0002046803001604160002060342077032064
:1026F000E8E70120E3E770478307FF22DB0E9A40FB
:102700008907090E9940002808DB830809489B00C7
:102710001B18186890430843186070470007000FA3
:102720000838830804489B001B18D8699043084365
:10273000D861704700E400E000ED00E002E008C866
:10274000121F08C1002AFAD170477047002001E02B
:1027500001C1121F002AFBD17047826081620021F3
:102760000A46C16093001B1819619961521C1962D5
:10277000022AF7DB01604160704700001CB5FEF7DC
:1027800077FAFFF7BFFAFFF7D1F94448816B0124CC
:1027900021438163806B0022204000901146092074
:1027A000FEF7C0FA0920FEF7B1FAFFF78FF9FFF73D
:1027B0003BFAFFF759FAFFF77BFA3A4838490160CC
:1027C000F921416000218160C46001618021816143
:1027D000FEF7AEFF0122344F140221463846FEF7C1
:1027E0005DF90122314DD60331462846FEF756F9F0
:1027F000012291032846FEF751F92A49220140316E
:102800008818FFF7AAFF2A48FDF7CEFF2548FEF7F4
:10281000C3FF002221463846FEF740F9254CA06947
:102820007F2836D9002231462846FEF737F922A004
:102830000068009021A0006801907D271C48FF00DF
:102840003B4602226946B030FFF7B4F815492069CB
:102850004031411816483B468022B030FFF7AAF8B5
:1028600013483B46022201A9B030FFF7A3F81149F3
:102870000A6980320A618B689A4201D3D01A0861D2
:10288000886901228038886131462846FEF706F9BA
:10289000C5E701218803FEF797FAC0E70010024060
:1028A00000200040B001002000040050000800504B
:1028B00010000020F0110020ADAD0000DADA0000B9
:1028C0000000000000000000000000000000000008
:1028D00000000000000000000000000000000000F8
:1028E00001000000020000000300000004000000DE
:1028F00006000000070000000800000009000000BA
:1029000000000000000000000000000000000000C7
:1029100001000000020000000300000004000000AD
:102920004029000800000020100000003C2700089B
:102930005029000810000020701600004C270008E5
:102940000400000001000000000000000024F4006A
:04000005080000BD32
:00000001FF
