:020000040800F2
:1000000070150020D1000008DD14000865130008F9
:1000100000000000000000000000000000000000E0
:10002000000000000000000000000000E1140008D3
:100030000000000000000000DF140008E3140008C6
:10004000E3000008E3000008E3000008E300000804
:10005000E3000008E3000008E3000008E3000008F4
:10006000E3000008FD010008E3000008E3000008C9
:10007000E3000008E3000008E3000008E3000008D4
:10008000E3000008E3000008E30000086D15000825
:10009000E3000008E3000008E3000008E3000008B4
:1000A000E3000008E3000008E3000008E3000008A4
:1000B000E300000851160008E300000803488546E5
:1000C00000F050F800480047D916000870150020CD
:1000D0000448804704480047FEE7FEE7FEE7FEE7E6
:1000E000FEE7FEE75D150008BD00000830B50B46D1
:1000F000014600202022012409E00D46D5409D4202
:1001000005D31D469540491B254695404019154687
:10011000521E002DF1DC30BD70B5002425460028AC
:1001200001DA01244042002901DA01254942FFF7A2
:10013000DDFFAC4200D04042002C00D0494270BDEF
:10014000D2B201E00270401C491EFBD2704700226F
:10015000F6E710B513460A4604461946FFF7F0FFC6
:10016000204610BD064C0125064E05E0E36807CC8D
:100170002B430C3C98471034B442F7D3FFF7A2FF4F
:100180002C1900084C190008F8B50446006801F065
:10019000EAF800282ED120688168174A10261140FD
:1001A000002919D18168D5432940491C8160607EAE
:1001B00001281FD000F0BEFB074616E001F0D3F87F
:1001C000002804D1206881682940491C816000F022
:1001D000B1FBC01B022808D9A06D3043A065E06DBB
:1001E00001210843E0650846F8BD20680168C9435D
:1001F000C907E3D10020F8BD1700008010B5024800
:1002000000F09CFA10BD000010110020F8B5002786
:100210000646044640360097307D0D4601280FD033
:1002200001203075206801F0A2F800280AD0A06DE6
:1002300020210843A0650127002030753846F8BD0D
:100240000220F8BD686802287ED001222169D20709
:10025000914202D0121D914206D120682968826A1B
:100260004903490B0A436EE0C206D20E0F20216EED
:10027000904081432868430302D0C3074BD102E07A
:100280004000C00E48E0830701D5012044E0430749
:1002900001D5022040E0030701D503203CE0C3065E
:1002A00001D5042038E0830601D5052034E043065B
:1002B00001D5062030E0030601D507202CE0C30558
:1002C00001D5082028E0830501D5092024E0430555
:1002D00001D50A2020E0030501D50B201CE0C30452
:1002E00001D50C2018E0830401D50D2014E043044F
:1002F00001D50E2010E0030401D50F200CE0C3034C
:1003000001D5102008E0830301D5112004E040034B
:1003100001D5122000E00020904001432166696869
:10032000E2698808401C904210D820682B68826AD5
:100330009C46C906C90E0F238B409A4363469B0017
:100340001B0F8B401A4300E038E082622168AB68E3
:1003500028684A690002824318404001400902436C
:100360004A612868002800DB66E7294A11680723EC
:100370009B051940274B984211D10B020FD4C002A4
:100380000143104600F0F7FF244823490068FFF7B7
:10039000ADFE00E0401E00900028FBD14CE7204B52
:1003A000984203D1CB0101D4800205E01D4B984255
:1003B000DAD14802D8D45802014325E0012120694E
:1003C000C907884202D0091D884206D120682968E1
:1003D000826A4903490B8A43826228680028C3DA8B
:1003E0000B4A116807239B0519400A4B984201D11B
:1003F000C00208E00A4B984201D1800203E0094B99
:100400009842B1D140028143104600F0B4FF13E797
:1004100008270140001000B0400D03003400002008
:10042000004000B8002000B4F0B5002685B00446B6
:10043000029601960096002803D0A06D002803D0F4
:1004400009E0012005B0F0BD204600F015F90020BC
:10045000E0655421085520688168C900C90F11D191
:1004600081687D4A114001221207114381607C4856
:100470007A490068FFF73AFE400000E0401E009015
:100480000028FBD1206881680127C900C90F002915
:1004900007D1A16D10221143A165E16D3943E165DA
:1004A000012600F064FFA16DC90601D4002804D024
:1004B000A06D10210843A065CAE0A06DFF210131A5
:1004C000884302210843A065206800F04CFF002803
:1004D00022D12168C86818229043A2681043C860DE
:1004E00020680169626889008908920F92071143A8
:1004F000016103216068890788420DD04942884222
:100500000AD04900884207D056498A680F239B04C5
:100510009A43184002438A60207EA27E8503607E53
:10052000C003054350030543206B002801D0012080
:1005300000030543E06805432069002802DA400013
:10054000400801E001204005214605432031087B99
:1005500040000543029805430878012808D1002A85
:100560001DD0A06D20221043A065E06D3843E065EA
:10057000606A002806D0FF23C1331840A26A2843CE
:1005800002431546626C206CE36C1043A26C097F39
:100590001A431043019A1043012904D004E00120BA
:1005A00000040543E4E738432168CA682E4B1A402B
:1005B0002A43CA6021680A692C4B1A4002430A6127
:1005C0000021626B206800F0DDFE2949A26B2068E3
:1005D00000F0D8FE206900282AD001214905884270
:1005E00018D1216E002082000B46D340DA43120757
:1005F00002D0401C0828F6D3012819D02068826A4E
:10060000227F9200121FD3060F22DB0ED2439A40A4
:100610000A4382622068C06816490840A8420ED189
:100620000020E065A06D80088000401CA06510E0FF
:100630002068816A0F22D24311438162EAE7A06DEC
:100640000221884310210843A065E06D3843E0652E
:1006500001263046F6E60000E8FFFF7F400D03006C
:1006600034000020002701401902FEFF02FCFFDFDA
:1006700004FFFF07E7FF3F8310B586B0044614214F
:100680006846FFF764FD1149206888421CD1104874
:100690000268012109050A430260006808400590CC
:1006A0000B484038416B012211434163406B69465E
:1006B00010400590432000900320019000200290FC
:1006C0000520000700F096F806B010BD0024014098
:1006D0004010024070B50446006800F048FE002853
:1006E00002D00221084670BD25464035287D0128EC
:1006F0000AD0012028752046FFF746FD014600205C
:10070000002903D02875EDE7022070BDA26D094BCA
:100710001A40FF2301331A43A265E06523681C22B7
:100720001A60287520688268034B1A40121D826087
:10073000D8E70000FEF1FFFFE8FFFF7FF0B42C498F
:100740000C6802681368056C1C273D400426AE4007
:10075000264211D05E070FD513689B0603D4146898
:1007600004239C4314604B68046C04223C40A24068
:1007700013434B60016B1CE00227AF400646274045
:100780002036002F19D09F0717D513689B0605D474
:1007900013680A24A3431360012272714B68046C2E
:1007A0001C2214400222A24013434B6000213171ED
:1007B000C16A00291AD0F0BC08470827AF40274279
:1007C00014D01B0712D513680E24A34313604B6883
:1007D000046C1C22144001221546A5402B434B609B
:1007E000C263727100213171416BE2E7F0BC704766
:1007F00000000240F0B5002388E001229A409446B0
:10080000144022007ED04C68022C01D0122C0CD156
:10081000DC08A40027183C6A5D07ED0E0F26AE40E9
:10082000B4430E69AE4026433E6205685E00032471
:10083000B4400F79A543BF07BF0FB7402F430760F0
:100840004D68012D05D0022D03D0112D01D0122DA0
:100850000ED18568CF68A543B7402F4387604768AE
:100860006546AF430D79ED06ED0F9D403D43456074
:10087000C568A5438C68B4402C43C4604C68E40050
:1008800043D59D08244CAD002F193C6E9D07EE0EFC
:100890000F25B540AC4305252D07A84201D1002501
:1008A0000FE01E4DA84201D101250AE01C4DA842CF
:1008B00001D1022505E01B4DA84201D1032500E02E
:1008C0000525B5402543144C3D66134D80352E68F3
:1008D0004F689643FF0300D516432E606E684F683D
:1008E0009643BF0300D516436E6025684E68954356
:1008F000F60200D51543256065684E689543B6023B
:1009000002D500E001E0154365605B1C0A681446EF
:10091000DA4000D071E7F0BD00180240000400503A
:1009200000080050000C0050002A01D0816170477F
:1009300081627047014880687047000028000020ED
:100940000248816842688918816070472800002049
:1009500010B5084800240168821511430160204643
:1009600000F00AF8002801D0012401E000F028F886
:10097000204610BD0020024070B50F4E0024716863
:100980000546002915D07D20C000FFF7AFFB0146CA
:100990000A480068FFF7AAFB00F082FC002808D193
:1009A000042D06D200222946401E00F02BF83560A7
:1009B00000E00124204670BD280000203400002003
:1009C00008B5094801680122114301600068104020
:1009D000009005484038C26B01040A43C263C06BF3
:1009E0000840009008BD000040100240002805DBD0
:1009F000C106C90E01208840014908607047000007
:100A000000E100E010B500F025FE10BD10B50F4C60
:100A1000216803225202914301432160C11FFF3923
:100A2000FA390ED10A480621006848430949FFF700
:100A30005DFB401C02E0002805D0401E61694905AD
:100A4000F9D4002010BD032010BD0000007000404C
:100A50003400002040420F0010B50C480621006809
:100A600048430B49FFF742FB0A490A680B149A43B3
:100A70000A60401C02E0002805D0401E4A69920529
:100A8000F9D4002010BD032010BD00003400002068
:100A900040420F00007000400248016802141143F8
:100AA000016070470070004010B50C460D490028E9
:100AB000486904D0800508D4FFF7EEFF05E0800503
:100AC00003D5FFF7C9FF002809D1074801690422AF
:100AD00091430161012C03D040BF20BF20BF10BD56
:100AE00030BF10BD0070004000ED00E0FEB50446D0
:100AF00000680027704D714E800355D5002000908E
:100B0000F06BC00007D4F16BA8050143F163F16BF2
:100B10000140012000906A4801688215114301607C
:100B2000FFF708FF019005E0FFF704FF0199401A65
:100B3000022825D862480068C005F5D5E869032178
:100B4000090208400FD0216B81420CD0E8690321D3
:100B50000902EA698843012109040A43EA61EA6952
:100B60008A43EA61E861C0070FD0FFF7E3FE019016
:100B700008E0FFF7DFFE0199411A5248814201D98E
:100B8000032709E0E8698007F3D5E8690321090232
:100B90008843216B0843E8610098002804D0F16B7A
:100BA000012000078143F1632078C00705D0686900
:100BB000616880088000084368612078800705D557
:100BC00068690C218843A168084368612078800621
:100BD00006D56869032189028843E1680843686192
:100BE0002088800506D56869032189048843A169A6
:100BF000084368612088400506D568690321090516
:100C00008843E169084368612078400606D5686931
:100C1000032109038843216908436861208840044F
:100C20000ED56869216A8000800808436861012147
:100C3000206A8907884203D1F06889130843F0606D
:100C40002068000305D5686940218843616A08432C
:100C50006861206881021C480BD569698210A36A0B
:100C6000914319436961A16A914202D1F16801433C
:100C7000F160216849020AD56969E26A814311433A
:100C80006961E16A814202D1F1680143F160208823
:100C900000050FD56869032189038843616908430A
:100CA0006861012160698903884203D1F068890085
:100CB0000843F0603846FEBD40100240001002407C
:100CC000007000408813000000000001F8B50F46D6
:100CD000060043D04D4D28684007400FB84213D25C
:100CE0002868C008C00038432860FFF723FE044688
:100CF00005E0FFF71FFE011B4548814261D82868C7
:100D00004007400FB842F4D13068424C81070DD5FE
:100D1000400704D5A068072109030843A060A06824
:100D20000F2109028843B1680843A0603078C007EA
:100D300032D0706801280AD002280BD000280FD0CA
:100D40003449403103280ED0C969890704E021687D
:100D5000890301E021688901002906DB0120F8BD33
:100D600021684905F8E7096AEFE7A168C908C900E1
:100D70000143A160FFF7DEFD009006E0FFF7DAFD1A
:100D80000099411A224881421BD8A06838210840A6
:100D90007168C9008842F1D128684007400FB84205
:100DA00017D91A480168C908C90039430160FFF71B
:100DB000C1FD054607E0FFF7BDFD411B1448814218
:100DC00001D90320F8BD114800684007400FB84220
:100DD000F1D13078400706D5A06807210903884380
:100DE000F1680843A06000F01DF8A1683C22890961
:100DF0001140094A515CC906C90EC840074908603C
:100E000007480068FFF7B8FDF8BD00000020024069
:100E10008813000000100240EC1800083400002085
:100E20002800002010B5204CA068204A8006400F02
:100E300016D0A0688006410F501001290FD0A1687C
:100E40008906490F022912D0A0688006400F0428A5
:100E500023D0A0688006400F032821D0002010BDB9
:100E6000206801218004400F8140104612E0E168B3
:100E70008B07E1689B0F4906490F491C032B00D0E3
:100E80001046FFF733F9E1684904490E4843E16829
:100E9000490F491CFFF72AF910BD0120C00310BDFE
:100EA0007D20000210BD0000001002400024F4006C
:100EB000F8B504007ED020783827C007EF4D002811
:100EC00046D0A868E96838408907890F102802D001
:100ED00008280BD001E0032908D001206268000433
:100EE00082420AD129680143296015E028688003FD
:100EF0002ED560680028DDD02AE0052301211B04DF
:100F000089049A422A6802D10A432A60EAE78243A6
:100F10002A60286888432860606800280CD0FFF7A2
:100F200009FD064604E0FFF705FD801B642873D821
:100F300028688003F7D50BE0FFF7FCFC064604E0C9
:100F4000FFF7F8FC801B6428F1D828688003F7D4E9
:100F50002078800769D5A868E96838408A070721A2
:100F6000920FC902102802D0002813D001E0022AF3
:100F700010D0E068002846D02868884321690843DB
:100F800028602868FF21013108432860FFF7D2FC60
:100F900006462CE02A68520502D5E268002A89D06C
:100FA0006A687F231B029A4363691B021A436A60C3
:100FB000002800E08DE00ED12868884321690843AD
:100FC0002860286801218004400F8140AC48FFF769
:100FD0008DF8AC490860AC480068FFF7CDFC0028EC
:100FE00077D122E0FFF7A6FC801B02289FD8286853
:100FF0004005F7D568687F210902884361690902C5
:101000000843686011E02968FF20013081432960AE
:10101000FFF790FC064605E098E0FFF78BFC801B8D
:10102000022884D828684005F7D42078974E000716
:101030002ED5A8688006400F03280AD0A069002892
:10104000306A16D0012108433062FFF773FC07466F
:101050000BE0306A80071BD5A06900289FD017E0FD
:10106000FFF768FCC01B022870D8306A8007F7D5EC
:101070000EE0400840003062FFF75CFC074604E0E9
:10108000FFF758FCC01B022860D8306A8007F7D4ED
:10109000207840076CD5A86800278006400F0428F8
:1010A00018D0E86BC00008D4E96B012000070143A9
:1010B000E963E96B01400127009175480168C905A2
:1010C00019D40168821511430160FFF733FC0090C9
:1010D0000DE083E0F06980074AD5A06800287DD044
:1010E00046E0FFF727FC0099401A02282ED86848EE
:1010F0000068C005F5D5A168012910D00420052994
:10110000F16911D049084900F161F1698143F16148
:10111000A068002816D0FFF70DFC00900EE0F069E3
:1011200001210843F061F3E70143F161F7E7FFF7BD
:1011300001FC0099411A574881426FD8F069800735
:10114000F5D50EE0FFF7F6FB009007E066E0FFF74D
:10115000F1FB0099411A4F4881425FD8F06980073E
:10116000F5D4002F04D0E86B012109078843E86318
:10117000E06900287FD0A9688906490F022953D069
:1011800001263606022828680DD0B0432860E8689A
:1011900080088000E860E8683F490840E860FFF7A1
:1011A000C9FB04463CE0B0432860FFF7C3FB074699
:1011B00004E0FFF7BFFBC01B02282FD8286880017E
:1011C000F7D4616A206AA26A0843E16A12021143F5
:1011D0000843216B0843616B084300E049E0E9687C
:1011E0002E4A11400843E860286830432860E868C8
:1011F000012109070843E860FFF79CFB044604E06F
:10120000FFF798FB001B022808D828688001F7D553
:1012100031E0FFF78FFB001B022801D90320F8BD46
:1012200028688001F5D426E00128F8D0E868226A11
:101230008107890F91421CD17021626A014091425D
:1012400017D17F21A26A090201401202914210D1F6
:101250001F214904E26A014091420AD1072149064F
:10126000226B0140914204D1400F616B40078842DC
:1012700001D00120F8BD0020F8BD000000100240A0
:101280000024F40034000020280000204010024018
:101290000070004088130000FFFFFEEE8C80C1113B
:1012A000094910B5401E884201D9012010BD074CE4
:1012B00060610321081F00F0CDF90020A061072024
:1012C0002061002010BD0000FFFFFF0000E000E0F3
:1012D00070B5040005D025462035687F002802D06F
:1012E00006E0012070BD00202877204600F00AF8B3
:1012F00002206877211D206800F060F901206877DE
:10130000002070BD08B50068094988420FD109481E
:101310000268C9130A430260006800220840009076
:1013200001211320FFF76EFB1320FFF75FFB08BDC1
:1013300000200040401002400168CB6801221343A6
:10134000CB6000688168064B1940062905D013045C
:10135000994202D0016811430160002070470000EB
:1013600007000100FEE78068C007C00F7047806873
:101370004007C00F7047026807239B059A430A4342
:101380000260704710B543690424214007248C4053
:10139000A3438A401343436110BD00003EB50024BF
:1013A0001548009401941349029401600905846072
:1013B000416020210461C16004214161047601255E
:1013C0004576847601462031C5610C7044628462A2
:1013D0000C730463446384630C776907C164FFF78B
:1013E00023F801946946044800950294FEF70EFF25
:1013F0003EBD00000024014038000020F0B587B059
:1014000014216846FEF7A3FE2F48416B04252943AB
:101410004163416B29400591426B20210A4342639D
:10142000426B0A400592416B012631434163416B97
:1014300031400591426B02210A434263406B032411
:101440000840A4030590002221462048FFF76CFACB
:10145000FF272137002239461D48FFF765FA00941F
:10146000002401960294694618480394FFF7C2F9D4
:10147000009503256946174801950294FFF7BAF9CC
:101480001548009005206946019502940007FFF772
:10149000B1F9DB2000906946019502940C48FFF7F2
:1014A000A9F9402000906946019502940748FFF78A
:1014B000A1F9029469460648009701960394FFF744
:1014C00099F907B0F0BD000000100240000800507C
:1014D0000004005000140050B0990000704770479D
:1014E000704710B5FFF72CFA10BD000010B5A0B082
:1014F00038216846FEF72BFE00241B941C941D9493
:1015000034210EA81E94FEF722FE01208002FFF770
:101510007DFA02200090C001039003200003049094
:101520004020059007946846FFF7C2FC07201B90F7
:101530001C941D9400211E941BA8FFF7C7FB0648AE
:101540000E900120C0021190000516900EA8FFF722
:10155000CDFA20B010BD000020400000012002495B
:10156000C00688607047000000ED00E010B510482C
:1015700081680422114381600E48016949084900CD
:1015800001610B48403000685103401800B214213B
:10159000FEF7C2FD00B200F0D7F8074901288869BC
:1015A00003D0CA021043886110BD2022FAE7000070
:1015B000002401400020004000040050F0B5026803
:1015C0001D4B0124A4071D4D984203D0A04201D019
:1015D000A84203D17026B2434E683243184E194FC9
:1015E00098420DD0A0420BD0A84209D0164CA04280
:1015F00006D0B04204D0B84202D0144CA04204D16C
:1016000003242402A243CC6822438024A2434C69D1
:10161000224302608A68C2620A688262984206D0E7
:10162000B04204D0B84202D0084A904201D10969C0
:10163000016301214161F0BD002C01400004004024
:1016400000400140004401400020004000480140AB
:10165000704700008307FF22DB0E9A408907090EBE
:101660009940002808DB830809489B001B1818686C
:1016700090430843186070470007000F083883083C
:1016800004489B001B18D86990430843D8617047F1
:1016900000E400E000ED00E002E008C8121F08C10D
:1016A000002AFAD170477047002001E001C1121FE3
:1016B000002AFBD170478260816200210A46C16026
:1016C00093001B1819619961521C1962022AF7DBF9
:1016D0000160416070470000FFF73AF9FFF706FF2D
:1016E000FFF78CFEFFF75AFE1548144901600022EF
:1016F000F9218260416001210261C1608021816124
:10170000FFF7E6FD0E490122120340318818FFF76A
:10171000D2FF0B486438FEF7DDFF0948FFF70CFEE7
:10172000FF21002201310748FFF7FEF80124A4033E
:1017300001212046FFF7B8F9FAE700000020004039
:101740009C00002000040050F0B5674C8FB0208052
:101750000222A25E04929200064612180420205E25
:1017600006230B9058431218E05E0A90800012186E
:101770000820205E099012180A20205E0890121A94
:101780000C20205E07908000121A0E20205E06902A
:101790005843121A1020205E05908000101A628AA9
:1017A000FF21801A05B2A5822420205EF531002792
:1017B0000D90FEF7B1FC20461622825E002902D071
:1017C000002A1AD02FE048491820085E002A0BD0C2
:1017D000052A28DB0111081800B220831E21615E52
:1017E000884220DD21831EE00111401A00B22083CF
:1017F0001C21615E884200DA2183002D01DB28462E
:1018000000E068421821615E884255DD0120E082D7
:1018100028202084002D01DD012001E00020C043AC
:1018200060840D98E08422231821E35E615E2846DF
:1018300058434A4290420CDA58426084E08A401C85
:1018400000B2E082042801DD322000E0282020845C
:101850000EE088420CDD002D01DB284600E06842E6
:101860001A22A25E904203DD002D00DA6D426583EC
:101870002022A25E501E2084002A1DDA1622A25EBB
:101880000020931E022B13D81A22A25E9210521A25
:10189000D210511809B221831C22A25E914203DBAF
:1018A0001E22A25E914200DD22830127A08402E075
:1018B000052A00DBFF27E0820598608206982082D7
:1018C0000798E0810898A081099860810A98208192
:1018D0000B98E0800498A0806680A08C401CA084B7
:1018E00038460FB0F0BD00000000002000000000EE
:1018F00000000000000000000000000000000000E8
:1019000000000000000000000000000001000000D6
:1019100002000000030000000400000006000000B8
:101920000700000008000000090000004C19000832
:1019300000000020380000009816000884190008F4
:101940003800002038150000A8160008000000002C
:101950000000000000000000000000000000000087
:101960000000000088130000F4018813000000004C
:101970000000000004000000010000000000000062
:041980000024F4004B
:04000005080000BD32
:00000001FF
